{
  "address": "0xe7f1725E7734CE288F8367e1Bb143E90bb3F0512",
  "abi": [
    {
      "inputs": [
        {
          "internalType": "address",
          "name": "PriceFeedAdress",
          "type": "address"
        }
      ],
      "stateMutability": "nonpayable",
      "type": "constructor"
    },
    {
      "inputs": [],
      "name": "FundMe__NotOwner",
      "type": "error"
    },
    {
      "inputs": [],
      "name": "MINIMUM_USD",
      "outputs": [
        {
          "internalType": "uint256",
          "name": "",
          "type": "uint256"
        }
      ],
      "stateMutability": "view",
      "type": "function"
    },
    {
      "inputs": [],
      "name": "fund",
      "outputs": [],
      "stateMutability": "payable",
      "type": "function"
    },
    {
      "inputs": [
        {
          "internalType": "address",
          "name": "funder",
          "type": "address"
        }
      ],
      "name": "getAddressToAmount",
      "outputs": [
        {
          "internalType": "uint256",
          "name": "",
          "type": "uint256"
        }
      ],
      "stateMutability": "view",
      "type": "function"
    },
    {
      "inputs": [
        {
          "internalType": "uint256",
          "name": "index",
          "type": "uint256"
        }
      ],
      "name": "getFunder",
      "outputs": [
        {
          "internalType": "address",
          "name": "",
          "type": "address"
        }
      ],
      "stateMutability": "view",
      "type": "function"
    },
    {
      "inputs": [],
      "name": "getOwner",
      "outputs": [
        {
          "internalType": "address",
          "name": "",
          "type": "address"
        }
      ],
      "stateMutability": "view",
      "type": "function"
    },
    {
      "inputs": [],
      "name": "getPriceFeed",
      "outputs": [
        {
          "internalType": "contract AggregatorV3Interface",
          "name": "",
          "type": "address"
        }
      ],
      "stateMutability": "view",
      "type": "function"
    },
    {
      "inputs": [],
      "name": "s_PriceFeed",
      "outputs": [
        {
          "internalType": "contract AggregatorV3Interface",
          "name": "",
          "type": "address"
        }
      ],
      "stateMutability": "view",
      "type": "function"
    },
    {
      "inputs": [],
      "name": "withdraw",
      "outputs": [],
      "stateMutability": "nonpayable",
      "type": "function"
    }
  ],
  "transactionHash": "0xf41fbab0fed2aaba51afbda1dd041bbf89aaf8e0dc9b7d8ca6ef659a21efa3c9",
  "args": [
    "0x5FbDB2315678afecb367f032d93F642f64180aa3"
  ],
  "numDeployments": 1,
  "solcInputHash": "0fd951dc88816405e133cf87f4ccfd3c",
  "bytecode": "0x60a060405234801561001057600080fd5b50604051610f7a380380610f7a83398181016040528101906100329190610110565b3373ffffffffffffffffffffffffffffffffffffffff1660808173ffffffffffffffffffffffffffffffffffffffff168152505080600260006101000a81548173ffffffffffffffffffffffffffffffffffffffff021916908373ffffffffffffffffffffffffffffffffffffffff1602179055505061013d565b600080fd5b600073ffffffffffffffffffffffffffffffffffffffff82169050919050565b60006100dd826100b2565b9050919050565b6100ed816100d2565b81146100f857600080fd5b50565b60008151905061010a816100e4565b92915050565b600060208284031215610126576101256100ad565b5b6000610134848285016100fb565b91505092915050565b608051610e1b61015f600039600081816101c9015261043e0152610e1b6000f3fe60806040526004361061007b5760003560e01c80639e87a5cd1161004e5780639e87a5cd14610118578063b60d428814610143578063c0f8cffc1461014d578063d7b4750c1461018a5761007b565b80633ccfd60b146100805780636677a04b146100975780636b69a592146100c2578063893d20e8146100ed575b600080fd5b34801561008c57600080fd5b506100956101c7565b005b3480156100a357600080fd5b506100ac610407565b6040516100b99190610849565b60405180910390f35b3480156100ce57600080fd5b506100d761042d565b6040516100e4919061087d565b60405180910390f35b3480156100f957600080fd5b5061010261043a565b60405161010f91906108b9565b60405180910390f35b34801561012457600080fd5b5061012d610462565b60405161013a9190610849565b60405180910390f35b61014b61048c565b005b34801561015957600080fd5b50610174600480360381019061016f9190610905565b6105c6565b604051610181919061087d565b60405180910390f35b34801561019657600080fd5b506101b160048036038101906101ac919061095e565b61060e565b6040516101be91906108b9565b60405180910390f35b7f000000000000000000000000000000000000000000000000000000000000000073ffffffffffffffffffffffffffffffffffffffff163373ffffffffffffffffffffffffffffffffffffffff161461024c576040517f579610db00000000000000000000000000000000000000000000000000000000815260040160405180910390fd5b60005b6001805490508110156102f7576000600182815481106102725761027161098b565b5b9060005260206000200160009054906101000a900473ffffffffffffffffffffffffffffffffffffffff16905060008060008373ffffffffffffffffffffffffffffffffffffffff1673ffffffffffffffffffffffffffffffffffffffff168152602001908152602001600020819055505080806102ef906109e9565b91505061024f565b50600067ffffffffffffffff81111561031357610312610a31565b5b6040519080825280602002602001820160405280156103415781602001602082028036833780820191505090505b5060019080519060200190610357929190610723565b5060003373ffffffffffffffffffffffffffffffffffffffff164760405161037e90610a91565b60006040518083038185875af1925050503d80600081146103bb576040519150601f19603f3d011682016040523d82523d6000602084013e6103c0565b606091505b5050905080610404576040517f08c379a00000000000000000000000000000000000000000000000000000000081526004016103fb90610b03565b60405180910390fd5b50565b600260009054906101000a900473ffffffffffffffffffffffffffffffffffffffff1681565b6802b5e3af16b188000081565b60007f0000000000000000000000000000000000000000000000000000000000000000905090565b6000600260009054906101000a900473ffffffffffffffffffffffffffffffffffffffff16905090565b6802b5e3af16b18800006104cb600260009054906101000a900473ffffffffffffffffffffffffffffffffffffffff163461065690919063ffffffff16565b101561050c576040517f08c379a000000000000000000000000000000000000000000000000000000000815260040161050390610b6f565b60405180910390fd5b346000803373ffffffffffffffffffffffffffffffffffffffff1673ffffffffffffffffffffffffffffffffffffffff168152602001908152602001600020600082825461055a9190610b8f565b925050819055506001339080600181540180825580915050600190039060005260206000200160009091909190916101000a81548173ffffffffffffffffffffffffffffffffffffffff021916908373ffffffffffffffffffffffffffffffffffffffff160217905550565b60008060008373ffffffffffffffffffffffffffffffffffffffff1673ffffffffffffffffffffffffffffffffffffffff168152602001908152602001600020549050919050565b6000600182815481106106245761062361098b565b5b9060005260206000200160009054906101000a900473ffffffffffffffffffffffffffffffffffffffff169050919050565b60008061066283610692565b90506000670de0b6b3a7640000858361067b9190610bc3565b6106859190610c34565b9050809250505092915050565b6000808273ffffffffffffffffffffffffffffffffffffffff1663feaf968c6040518163ffffffff1660e01b815260040160a060405180830381865afa1580156106e0573d6000803e3d6000fd5b505050506040513d601f19601f820116820180604052508101906107049190610cf2565b5050509150506402540be4008161071b9190610d6d565b915050919050565b82805482825590600052602060002090810192821561079c579160200282015b8281111561079b5782518260006101000a81548173ffffffffffffffffffffffffffffffffffffffff021916908373ffffffffffffffffffffffffffffffffffffffff16021790555091602001919060010190610743565b5b5090506107a991906107ad565b5090565b5b808211156107c65760008160009055506001016107ae565b5090565b600073ffffffffffffffffffffffffffffffffffffffff82169050919050565b6000819050919050565b600061080f61080a610805846107ca565b6107ea565b6107ca565b9050919050565b6000610821826107f4565b9050919050565b600061083382610816565b9050919050565b61084381610828565b82525050565b600060208201905061085e600083018461083a565b92915050565b6000819050919050565b61087781610864565b82525050565b6000602082019050610892600083018461086e565b92915050565b60006108a3826107ca565b9050919050565b6108b381610898565b82525050565b60006020820190506108ce60008301846108aa565b92915050565b600080fd5b6108e281610898565b81146108ed57600080fd5b50565b6000813590506108ff816108d9565b92915050565b60006020828403121561091b5761091a6108d4565b5b6000610929848285016108f0565b91505092915050565b61093b81610864565b811461094657600080fd5b50565b60008135905061095881610932565b92915050565b600060208284031215610974576109736108d4565b5b600061098284828501610949565b91505092915050565b7f4e487b7100000000000000000000000000000000000000000000000000000000600052603260045260246000fd5b7f4e487b7100000000000000000000000000000000000000000000000000000000600052601160045260246000fd5b60006109f482610864565b91507fffffffffffffffffffffffffffffffffffffffffffffffffffffffffffffffff8203610a2657610a256109ba565b5b600182019050919050565b7f4e487b7100000000000000000000000000000000000000000000000000000000600052604160045260246000fd5b600081905092915050565b50565b6000610a7b600083610a60565b9150610a8682610a6b565b600082019050919050565b6000610a9c82610a6e565b9150819050919050565b600082825260208201905092915050565b7f43616c6c206661696c6564000000000000000000000000000000000000000000600082015250565b6000610aed600b83610aa6565b9150610af882610ab7565b602082019050919050565b60006020820190508181036000830152610b1c81610ae0565b9050919050565b7f596f75206e65656420746f207370656e64206d6f726520455448210000000000600082015250565b6000610b59601b83610aa6565b9150610b6482610b23565b602082019050919050565b60006020820190508181036000830152610b8881610b4c565b9050919050565b6000610b9a82610864565b9150610ba583610864565b9250828201905080821115610bbd57610bbc6109ba565b5b92915050565b6000610bce82610864565b9150610bd983610864565b9250828202610be781610864565b91508282048414831517610bfe57610bfd6109ba565b5b5092915050565b7f4e487b7100000000000000000000000000000000000000000000000000000000600052601260045260246000fd5b6000610c3f82610864565b9150610c4a83610864565b925082610c5a57610c59610c05565b5b828204905092915050565b600069ffffffffffffffffffff82169050919050565b610c8481610c65565b8114610c8f57600080fd5b50565b600081519050610ca181610c7b565b92915050565b6000819050919050565b610cba81610ca7565b8114610cc557600080fd5b50565b600081519050610cd781610cb1565b92915050565b600081519050610cec81610932565b92915050565b600080600080600060a08688031215610d0e57610d0d6108d4565b5b6000610d1c88828901610c92565b9550506020610d2d88828901610cc8565b9450506040610d3e88828901610cdd565b9350506060610d4f88828901610cdd565b9250506080610d6088828901610c92565b9150509295509295909350565b6000610d7882610ca7565b9150610d8383610ca7565b9250828202610d9181610ca7565b91507f80000000000000000000000000000000000000000000000000000000000000008414600084121615610dc957610dc86109ba565b5b8282058414831517610dde57610ddd6109ba565b5b509291505056fea26469706673582212200163b237cb22eac5150800b99da85c7f0e587a7b130a87406a89215b0de9824c64736f6c63430008110033",
  "devdoc": {
    "author": "haris rashid",
    "details": "this implements PriceConverter as library",
    "kind": "dev",
    "methods": {},
    "title": "A contract for crowd funding",
    "version": 1
  },
  "userdoc": {
    "kind": "user",
    "methods": {},
    "notice": "this is demo for sample funding contract",
    "version": 1
  },
  "storageLayout": {
    "storage": [
      {
        "astId": 58,
        "contract": "contracts/FundMe.sol:FundMe",
        "label": "s_addressToAmountFunded",
        "offset": 0,
        "slot": "0",
        "type": "t_mapping(t_address,t_uint256)"
      },
      {
        "astId": 61,
        "contract": "contracts/FundMe.sol:FundMe",
        "label": "s_funders",
        "offset": 0,
        "slot": "1",
        "type": "t_array(t_address)dyn_storage"
      },
      {
        "astId": 73,
        "contract": "contracts/FundMe.sol:FundMe",
        "label": "s_PriceFeed",
        "offset": 0,
        "slot": "2",
        "type": "t_contract(AggregatorV3Interface)45"
      }
    ],
    "types": {
      "t_address": {
        "encoding": "inplace",
        "label": "address",
        "numberOfBytes": "20"
      },
      "t_array(t_address)dyn_storage": {
        "base": "t_address",
        "encoding": "dynamic_array",
        "label": "address[]",
        "numberOfBytes": "32"
      },
      "t_contract(AggregatorV3Interface)45": {
        "encoding": "inplace",
        "label": "contract AggregatorV3Interface",
        "numberOfBytes": "20"
      },
      "t_mapping(t_address,t_uint256)": {
        "encoding": "mapping",
        "key": "t_address",
        "label": "mapping(address => uint256)",
        "numberOfBytes": "32",
        "value": "t_uint256"
      },
      "t_uint256": {
        "encoding": "inplace",
        "label": "uint256",
        "numberOfBytes": "32"
      }
    }
  }
}